{
  "_format": "hh-sol-artifact-1",
  "contractName": "NFT",
  "sourceName": "contracts/NFT.sol",
  "abi": [
    {
      "inputs": [],
      "stateMutability": "nonpayable",
      "type": "constructor"
    },
    {
      "anonymous": false,
      "inputs": [
        {
          "indexed": true,
          "internalType": "address",
          "name": "owner",
          "type": "address"
        },
        {
          "indexed": true,
          "internalType": "address",
          "name": "approved",
          "type": "address"
        },
        {
          "indexed": true,
          "internalType": "uint256",
          "name": "tokenId",
          "type": "uint256"
        }
      ],
      "name": "Approval",
      "type": "event"
    },
    {
      "anonymous": false,
      "inputs": [
        {
          "indexed": true,
          "internalType": "address",
          "name": "owner",
          "type": "address"
        },
        {
          "indexed": true,
          "internalType": "address",
          "name": "operator",
          "type": "address"
        },
        {
          "indexed": false,
          "internalType": "bool",
          "name": "approved",
          "type": "bool"
        }
      ],
      "name": "ApprovalForAll",
      "type": "event"
    },
    {
      "anonymous": false,
      "inputs": [
        {
          "indexed": true,
          "internalType": "address",
          "name": "from",
          "type": "address"
        },
        {
          "indexed": true,
          "internalType": "address",
          "name": "to",
          "type": "address"
        },
        {
          "indexed": true,
          "internalType": "uint256",
          "name": "tokenId",
          "type": "uint256"
        }
      ],
      "name": "Transfer",
      "type": "event"
    },
    {
      "inputs": [
        {
          "internalType": "address",
          "name": "to",
          "type": "address"
        },
        {
          "internalType": "uint256",
          "name": "tokenId",
          "type": "uint256"
        }
      ],
      "name": "approve",
      "outputs": [],
      "stateMutability": "nonpayable",
      "type": "function"
    },
    {
      "inputs": [
        {
          "internalType": "address",
          "name": "owner",
          "type": "address"
        }
      ],
      "name": "balanceOf",
      "outputs": [
        {
          "internalType": "uint256",
          "name": "",
          "type": "uint256"
        }
      ],
      "stateMutability": "view",
      "type": "function"
    },
    {
      "inputs": [
        {
          "internalType": "uint256",
          "name": "tokenId",
          "type": "uint256"
        }
      ],
      "name": "getApproved",
      "outputs": [
        {
          "internalType": "address",
          "name": "",
          "type": "address"
        }
      ],
      "stateMutability": "view",
      "type": "function"
    },
    {
      "inputs": [
        {
          "internalType": "address",
          "name": "owner",
          "type": "address"
        }
      ],
      "name": "getTokensByOwner",
      "outputs": [
        {
          "internalType": "uint256[]",
          "name": "",
          "type": "uint256[]"
        }
      ],
      "stateMutability": "view",
      "type": "function"
    },
    {
      "inputs": [],
      "name": "getTotalTokens",
      "outputs": [
        {
          "internalType": "uint256",
          "name": "",
          "type": "uint256"
        }
      ],
      "stateMutability": "view",
      "type": "function"
    },
    {
      "inputs": [
        {
          "internalType": "address",
          "name": "owner",
          "type": "address"
        },
        {
          "internalType": "address",
          "name": "operator",
          "type": "address"
        }
      ],
      "name": "isApprovedForAll",
      "outputs": [
        {
          "internalType": "bool",
          "name": "",
          "type": "bool"
        }
      ],
      "stateMutability": "view",
      "type": "function"
    },
    {
      "inputs": [
        {
          "internalType": "address",
          "name": "player",
          "type": "address"
        },
        {
          "internalType": "string",
          "name": "tokenURI",
          "type": "string"
        }
      ],
      "name": "mintCO2savings",
      "outputs": [
        {
          "internalType": "uint256",
          "name": "",
          "type": "uint256"
        }
      ],
      "stateMutability": "nonpayable",
      "type": "function"
    },
    {
      "inputs": [],
      "name": "name",
      "outputs": [
        {
          "internalType": "string",
          "name": "",
          "type": "string"
        }
      ],
      "stateMutability": "view",
      "type": "function"
    },
    {
      "inputs": [
        {
          "internalType": "uint256",
          "name": "tokenId",
          "type": "uint256"
        }
      ],
      "name": "ownerOf",
      "outputs": [
        {
          "internalType": "address",
          "name": "",
          "type": "address"
        }
      ],
      "stateMutability": "view",
      "type": "function"
    },
    {
      "inputs": [
        {
          "internalType": "address",
          "name": "from",
          "type": "address"
        },
        {
          "internalType": "address",
          "name": "to",
          "type": "address"
        },
        {
          "internalType": "uint256",
          "name": "tokenId",
          "type": "uint256"
        }
      ],
      "name": "safeTransferFrom",
      "outputs": [],
      "stateMutability": "nonpayable",
      "type": "function"
    },
    {
      "inputs": [
        {
          "internalType": "address",
          "name": "from",
          "type": "address"
        },
        {
          "internalType": "address",
          "name": "to",
          "type": "address"
        },
        {
          "internalType": "uint256",
          "name": "tokenId",
          "type": "uint256"
        },
        {
          "internalType": "bytes",
          "name": "data",
          "type": "bytes"
        }
      ],
      "name": "safeTransferFrom",
      "outputs": [],
      "stateMutability": "nonpayable",
      "type": "function"
    },
    {
      "inputs": [
        {
          "internalType": "address",
          "name": "operator",
          "type": "address"
        },
        {
          "internalType": "bool",
          "name": "approved",
          "type": "bool"
        }
      ],
      "name": "setApprovalForAll",
      "outputs": [],
      "stateMutability": "nonpayable",
      "type": "function"
    },
    {
      "inputs": [
        {
          "internalType": "bytes4",
          "name": "interfaceId",
          "type": "bytes4"
        }
      ],
      "name": "supportsInterface",
      "outputs": [
        {
          "internalType": "bool",
          "name": "",
          "type": "bool"
        }
      ],
      "stateMutability": "view",
      "type": "function"
    },
    {
      "inputs": [],
      "name": "symbol",
      "outputs": [
        {
          "internalType": "string",
          "name": "",
          "type": "string"
        }
      ],
      "stateMutability": "view",
      "type": "function"
    },
    {
      "inputs": [
        {
          "internalType": "uint256",
          "name": "tokenId",
          "type": "uint256"
        }
      ],
      "name": "tokenURI",
      "outputs": [
        {
          "internalType": "string",
          "name": "",
          "type": "string"
        }
      ],
      "stateMutability": "view",
      "type": "function"
    },
    {
      "inputs": [
        {
          "internalType": "address",
          "name": "from",
          "type": "address"
        },
        {
          "internalType": "address",
          "name": "to",
          "type": "address"
        },
        {
          "internalType": "uint256",
          "name": "tokenId",
          "type": "uint256"
        }
      ],
      "name": "transferFrom",
      "outputs": [],
      "stateMutability": "nonpayable",
      "type": "function"
    }
  ],
  "bytecode": "0x60806040523480156200001157600080fd5b506040518060400160405280600781526020017f434f32204e4654000000000000000000000000000000000000000000000000008152506040518060400160405280600381526020017f434f32000000000000000000000000000000000000000000000000000000000081525081600090816200008f919062000324565b508060019081620000a1919062000324565b5050506200040b565b600081519050919050565b7f4e487b7100000000000000000000000000000000000000000000000000000000600052604160045260246000fd5b7f4e487b7100000000000000000000000000000000000000000000000000000000600052602260045260246000fd5b600060028204905060018216806200012c57607f821691505b602082108103620001425762000141620000e4565b5b50919050565b60008190508160005260206000209050919050565b60006020601f8301049050919050565b600082821b905092915050565b600060088302620001ac7fffffffffffffffffffffffffffffffffffffffffffffffffffffffffffffffff826200016d565b620001b886836200016d565b95508019841693508086168417925050509392505050565b6000819050919050565b6000819050919050565b600062000205620001ff620001f984620001d0565b620001da565b620001d0565b9050919050565b6000819050919050565b6200022183620001e4565b6200023962000230826200020c565b8484546200017a565b825550505050565b600090565b6200025062000241565b6200025d81848462000216565b505050565b5b8181101562000285576200027960008262000246565b60018101905062000263565b5050565b601f821115620002d4576200029e8162000148565b620002a9846200015d565b81016020851015620002b9578190505b620002d1620002c8856200015d565b83018262000262565b50505b505050565b600082821c905092915050565b6000620002f960001984600802620002d9565b1980831691505092915050565b6000620003148383620002e6565b9150826002028217905092915050565b6200032f82620000aa565b67ffffffffffffffff8111156200034b576200034a620000b5565b5b62000357825462000113565b6200036482828562000289565b600060209050601f8311600181146200039c576000841562000387578287015190505b62000393858262000306565b86555062000403565b601f198416620003ac8662000148565b60005b82811015620003d657848901518255600182019150602085019450602081019050620003af565b86831015620003f65784890151620003f2601f891682620002e6565b8355505b6001600288020188555050505b505050505050565b612e50806200041b6000396000f3fe608060405234801561001057600080fd5b50600436106101005760003560e01c80636352211e11610097578063b88d4fde11610066578063b88d4fde146102d1578063c87b56dd146102ed578063e985e9c51461031d578063f08b82e61461034d57610100565b80636352211e1461023757806370a082311461026757806395d89b4114610297578063a22cb465146102b557610100565b806323b872dd116100d357806323b872dd1461019f57806340398d67146101bb57806342842e0e146101eb578063584b28261461020757610100565b806301ffc9a71461010557806306fdde0314610135578063081812fc14610153578063095ea7b314610183575b600080fd5b61011f600480360381019061011a9190611bc8565b61036b565b60405161012c9190611c10565b60405180910390f35b61013d61044d565b60405161014a9190611cbb565b60405180910390f35b61016d60048036038101906101689190611d13565b6104df565b60405161017a9190611d81565b60405180910390f35b61019d60048036038101906101989190611dc8565b610525565b005b6101b960048036038101906101b49190611e08565b61063c565b005b6101d560048036038101906101d09190611e5b565b61069c565b6040516101e29190611f46565b60405180910390f35b61020560048036038101906102009190611e08565b610733565b005b610221600480360381019061021c919061209d565b610753565b60405161022e9190612108565b60405180910390f35b610251600480360381019061024c9190611d13565b6107f0565b60405161025e9190611d81565b60405180910390f35b610281600480360381019061027c9190611e5b565b610876565b60405161028e9190612108565b60405180910390f35b61029f61092d565b6040516102ac9190611cbb565b60405180910390f35b6102cf60048036038101906102ca919061214f565b6109bf565b005b6102eb60048036038101906102e69190612230565b6109d5565b005b61030760048036038101906103029190611d13565b610a37565b6040516103149190611cbb565b60405180910390f35b610337600480360381019061033291906122b3565b610b49565b6040516103449190611c10565b60405180910390f35b610355610bdd565b6040516103629190612108565b60405180910390f35b60007f80ac58cd000000000000000000000000000000000000000000000000000000007bffffffffffffffffffffffffffffffffffffffffffffffffffffffff1916827bffffffffffffffffffffffffffffffffffffffffffffffffffffffff1916148061043657507f5b5e139f000000000000000000000000000000000000000000000000000000007bffffffffffffffffffffffffffffffffffffffffffffffffffffffff1916827bffffffffffffffffffffffffffffffffffffffffffffffffffffffff1916145b80610446575061044582610bee565b5b9050919050565b60606000805461045c90612322565b80601f016020809104026020016040519081016040528092919081815260200182805461048890612322565b80156104d55780601f106104aa576101008083540402835291602001916104d5565b820191906000526020600020905b8154815290600101906020018083116104b857829003601f168201915b5050505050905090565b60006104ea82610c58565b6004600083815260200190815260200160002060009054906101000a900473ffffffffffffffffffffffffffffffffffffffff169050919050565b6000610530826107f0565b90508073ffffffffffffffffffffffffffffffffffffffff168373ffffffffffffffffffffffffffffffffffffffff16036105a0576040517f08c379a0000000000000000000000000000000000000000000000000000000008152600401610597906123c5565b60405180910390fd5b8073ffffffffffffffffffffffffffffffffffffffff166105bf610ca3565b73ffffffffffffffffffffffffffffffffffffffff1614806105ee57506105ed816105e8610ca3565b610b49565b5b61062d576040517f08c379a000000000000000000000000000000000000000000000000000000000815260040161062490612457565b60405180910390fd5b6106378383610cab565b505050565b61064d610647610ca3565b82610d64565b61068c576040517f08c379a0000000000000000000000000000000000000000000000000000000008152600401610683906124e9565b60405180910390fd5b610697838383610df9565b505050565b6060600860008373ffffffffffffffffffffffffffffffffffffffff1673ffffffffffffffffffffffffffffffffffffffff16815260200190815260200160002080548060200260200160405190810160405280929190818152602001828054801561072757602002820191906000526020600020905b815481526020019060010190808311610713575b50505050509050919050565b61074e838383604051806020016040528060008152506109d5565b505050565b60008061076060076110f2565b905061076c8482611100565b610776818461131d565b610780600761138a565b600860008573ffffffffffffffffffffffffffffffffffffffff1673ffffffffffffffffffffffffffffffffffffffff1681526020019081526020016000208190806001815401808255809150506001900390600052602060002001600090919091909150558091505092915050565b6000806107fc836113a0565b9050600073ffffffffffffffffffffffffffffffffffffffff168173ffffffffffffffffffffffffffffffffffffffff160361086d576040517f08c379a000000000000000000000000000000000000000000000000000000000815260040161086490612555565b60405180910390fd5b80915050919050565b60008073ffffffffffffffffffffffffffffffffffffffff168273ffffffffffffffffffffffffffffffffffffffff16036108e6576040517f08c379a00000000000000000000000000000000000000000000000000000000081526004016108dd906125e7565b60405180910390fd5b600360008373ffffffffffffffffffffffffffffffffffffffff1673ffffffffffffffffffffffffffffffffffffffff168152602001908152602001600020549050919050565b60606001805461093c90612322565b80601f016020809104026020016040519081016040528092919081815260200182805461096890612322565b80156109b55780601f1061098a576101008083540402835291602001916109b5565b820191906000526020600020905b81548152906001019060200180831161099857829003601f168201915b5050505050905090565b6109d16109ca610ca3565b83836113dd565b5050565b6109e66109e0610ca3565b83610d64565b610a25576040517f08c379a0000000000000000000000000000000000000000000000000000000008152600401610a1c906124e9565b60405180910390fd5b610a3184848484611549565b50505050565b6060610a4282610c58565b6000600660008481526020019081526020016000208054610a6290612322565b80601f0160208091040260200160405190810160405280929190818152602001828054610a8e90612322565b8015610adb5780601f10610ab057610100808354040283529160200191610adb565b820191906000526020600020905b815481529060010190602001808311610abe57829003601f168201915b505050505090506000610aec6115a5565b90506000815103610b01578192505050610b44565b600082511115610b36578082604051602001610b1e929190612643565b60405160208183030381529060405292505050610b44565b610b3f846115bc565b925050505b919050565b6000600560008473ffffffffffffffffffffffffffffffffffffffff1673ffffffffffffffffffffffffffffffffffffffff16815260200190815260200160002060008373ffffffffffffffffffffffffffffffffffffffff1673ffffffffffffffffffffffffffffffffffffffff16815260200190815260200160002060009054906101000a900460ff16905092915050565b6000610be960076110f2565b905090565b60007f01ffc9a7000000000000000000000000000000000000000000000000000000007bffffffffffffffffffffffffffffffffffffffffffffffffffffffff1916827bffffffffffffffffffffffffffffffffffffffffffffffffffffffff1916149050919050565b610c6181611624565b610ca0576040517f08c379a0000000000000000000000000000000000000000000000000000000008152600401610c9790612555565b60405180910390fd5b50565b600033905090565b816004600083815260200190815260200160002060006101000a81548173ffffffffffffffffffffffffffffffffffffffff021916908373ffffffffffffffffffffffffffffffffffffffff160217905550808273ffffffffffffffffffffffffffffffffffffffff16610d1e836107f0565b73ffffffffffffffffffffffffffffffffffffffff167f8c5be1e5ebec7d5bd14f71427d1e84f3dd0314c0f7b2291e5b200ac8c7c3b92560405160405180910390a45050565b600080610d70836107f0565b90508073ffffffffffffffffffffffffffffffffffffffff168473ffffffffffffffffffffffffffffffffffffffff161480610db25750610db18185610b49565b5b80610df057508373ffffffffffffffffffffffffffffffffffffffff16610dd8846104df565b73ffffffffffffffffffffffffffffffffffffffff16145b91505092915050565b8273ffffffffffffffffffffffffffffffffffffffff16610e19826107f0565b73ffffffffffffffffffffffffffffffffffffffff1614610e6f576040517f08c379a0000000000000000000000000000000000000000000000000000000008152600401610e66906126d9565b60405180910390fd5b600073ffffffffffffffffffffffffffffffffffffffff168273ffffffffffffffffffffffffffffffffffffffff1603610ede576040517f08c379a0000000000000000000000000000000000000000000000000000000008152600401610ed59061276b565b60405180910390fd5b610eeb8383836001611665565b8273ffffffffffffffffffffffffffffffffffffffff16610f0b826107f0565b73ffffffffffffffffffffffffffffffffffffffff1614610f61576040517f08c379a0000000000000000000000000000000000000000000000000000000008152600401610f58906126d9565b60405180910390fd5b6004600082815260200190815260200160002060006101000a81549073ffffffffffffffffffffffffffffffffffffffff02191690556001600360008573ffffffffffffffffffffffffffffffffffffffff1673ffffffffffffffffffffffffffffffffffffffff168152602001908152602001600020600082825403925050819055506001600360008473ffffffffffffffffffffffffffffffffffffffff1673ffffffffffffffffffffffffffffffffffffffff16815260200190815260200160002060008282540192505081905550816002600083815260200190815260200160002060006101000a81548173ffffffffffffffffffffffffffffffffffffffff021916908373ffffffffffffffffffffffffffffffffffffffff160217905550808273ffffffffffffffffffffffffffffffffffffffff168473ffffffffffffffffffffffffffffffffffffffff167fddf252ad1be2c89b69c2b068fc378daa952ba7f163c4a11628f55a4df523b3ef60405160405180910390a46110ed838383600161178b565b505050565b600081600001549050919050565b600073ffffffffffffffffffffffffffffffffffffffff168273ffffffffffffffffffffffffffffffffffffffff160361116f576040517f08c379a0000000000000000000000000000000000000000000000000000000008152600401611166906127d7565b60405180910390fd5b61117881611624565b156111b8576040517f08c379a00000000000000000000000000000000000000000000000000000000081526004016111af90612843565b60405180910390fd5b6111c6600083836001611665565b6111cf81611624565b1561120f576040517f08c379a000000000000000000000000000000000000000000000000000000000815260040161120690612843565b60405180910390fd5b6001600360008473ffffffffffffffffffffffffffffffffffffffff1673ffffffffffffffffffffffffffffffffffffffff16815260200190815260200160002060008282540192505081905550816002600083815260200190815260200160002060006101000a81548173ffffffffffffffffffffffffffffffffffffffff021916908373ffffffffffffffffffffffffffffffffffffffff160217905550808273ffffffffffffffffffffffffffffffffffffffff16600073ffffffffffffffffffffffffffffffffffffffff167fddf252ad1be2c89b69c2b068fc378daa952ba7f163c4a11628f55a4df523b3ef60405160405180910390a461131960008383600161178b565b5050565b61132682611624565b611365576040517f08c379a000000000000000000000000000000000000000000000000000000000815260040161135c906128d5565b60405180910390fd5b806006600084815260200190815260200160002090816113859190612aa1565b505050565b6001816000016000828254019250508190555050565b60006002600083815260200190815260200160002060009054906101000a900473ffffffffffffffffffffffffffffffffffffffff169050919050565b8173ffffffffffffffffffffffffffffffffffffffff168373ffffffffffffffffffffffffffffffffffffffff160361144b576040517f08c379a000000000000000000000000000000000000000000000000000000000815260040161144290612bbf565b60405180910390fd5b80600560008573ffffffffffffffffffffffffffffffffffffffff1673ffffffffffffffffffffffffffffffffffffffff16815260200190815260200160002060008473ffffffffffffffffffffffffffffffffffffffff1673ffffffffffffffffffffffffffffffffffffffff16815260200190815260200160002060006101000a81548160ff0219169083151502179055508173ffffffffffffffffffffffffffffffffffffffff168373ffffffffffffffffffffffffffffffffffffffff167f17307eab39ab6107e8899845ad3d59bd9653f200f220920489ca2b5937696c318360405161153c9190611c10565b60405180910390a3505050565b611554848484610df9565b61156084848484611791565b61159f576040517f08c379a000000000000000000000000000000000000000000000000000000000815260040161159690612c51565b60405180910390fd5b50505050565b606060405180602001604052806000815250905090565b60606115c782610c58565b60006115d16115a5565b905060008151116115f1576040518060200160405280600081525061161c565b806115fb84611918565b60405160200161160c929190612643565b6040516020818303038152906040525b915050919050565b60008073ffffffffffffffffffffffffffffffffffffffff16611646836113a0565b73ffffffffffffffffffffffffffffffffffffffff1614159050919050565b600181111561178557600073ffffffffffffffffffffffffffffffffffffffff168473ffffffffffffffffffffffffffffffffffffffff16146116f95780600360008673ffffffffffffffffffffffffffffffffffffffff1673ffffffffffffffffffffffffffffffffffffffff16815260200190815260200160002060008282546116f19190612ca0565b925050819055505b600073ffffffffffffffffffffffffffffffffffffffff168373ffffffffffffffffffffffffffffffffffffffff16146117845780600360008573ffffffffffffffffffffffffffffffffffffffff1673ffffffffffffffffffffffffffffffffffffffff168152602001908152602001600020600082825461177c9190612cd4565b925050819055505b5b50505050565b50505050565b60006117b28473ffffffffffffffffffffffffffffffffffffffff166119e6565b1561190b578373ffffffffffffffffffffffffffffffffffffffff1663150b7a026117db610ca3565b8786866040518563ffffffff1660e01b81526004016117fd9493929190612d5d565b6020604051808303816000875af192505050801561183957506040513d601f19601f820116820180604052508101906118369190612dbe565b60015b6118bb573d8060008114611869576040519150601f19603f3d011682016040523d82523d6000602084013e61186e565b606091505b5060008151036118b3576040517f08c379a00000000000000000000000000000000000000000000000000000000081526004016118aa90612c51565b60405180910390fd5b805181602001fd5b63150b7a0260e01b7bffffffffffffffffffffffffffffffffffffffffffffffffffffffff1916817bffffffffffffffffffffffffffffffffffffffffffffffffffffffff191614915050611910565b600190505b949350505050565b60606000600161192784611a09565b01905060008167ffffffffffffffff81111561194657611945611f72565b5b6040519080825280601f01601f1916602001820160405280156119785781602001600182028036833780820191505090505b509050600082602001820190505b6001156119db578080600190039150507f3031323334353637383961626364656600000000000000000000000000000000600a86061a8153600a85816119cf576119ce612deb565b5b04945060008503611986575b819350505050919050565b6000808273ffffffffffffffffffffffffffffffffffffffff163b119050919050565b600080600090507a184f03e93ff9f4daa797ed6e38ed64bf6a1f0100000000000000008310611a67577a184f03e93ff9f4daa797ed6e38ed64bf6a1f0100000000000000008381611a5d57611a5c612deb565b5b0492506040810190505b6d04ee2d6d415b85acef81000000008310611aa4576d04ee2d6d415b85acef81000000008381611a9a57611a99612deb565b5b0492506020810190505b662386f26fc100008310611ad357662386f26fc100008381611ac957611ac8612deb565b5b0492506010810190505b6305f5e1008310611afc576305f5e1008381611af257611af1612deb565b5b0492506008810190505b6127108310611b21576127108381611b1757611b16612deb565b5b0492506004810190505b60648310611b445760648381611b3a57611b39612deb565b5b0492506002810190505b600a8310611b53576001810190505b80915050919050565b6000604051905090565b600080fd5b600080fd5b60007fffffffff0000000000000000000000000000000000000000000000000000000082169050919050565b611ba581611b70565b8114611bb057600080fd5b50565b600081359050611bc281611b9c565b92915050565b600060208284031215611bde57611bdd611b66565b5b6000611bec84828501611bb3565b91505092915050565b60008115159050919050565b611c0a81611bf5565b82525050565b6000602082019050611c256000830184611c01565b92915050565b600081519050919050565b600082825260208201905092915050565b60005b83811015611c65578082015181840152602081019050611c4a565b60008484015250505050565b6000601f19601f8301169050919050565b6000611c8d82611c2b565b611c978185611c36565b9350611ca7818560208601611c47565b611cb081611c71565b840191505092915050565b60006020820190508181036000830152611cd58184611c82565b905092915050565b6000819050919050565b611cf081611cdd565b8114611cfb57600080fd5b50565b600081359050611d0d81611ce7565b92915050565b600060208284031215611d2957611d28611b66565b5b6000611d3784828501611cfe565b91505092915050565b600073ffffffffffffffffffffffffffffffffffffffff82169050919050565b6000611d6b82611d40565b9050919050565b611d7b81611d60565b82525050565b6000602082019050611d966000830184611d72565b92915050565b611da581611d60565b8114611db057600080fd5b50565b600081359050611dc281611d9c565b92915050565b60008060408385031215611ddf57611dde611b66565b5b6000611ded85828601611db3565b9250506020611dfe85828601611cfe565b9150509250929050565b600080600060608486031215611e2157611e20611b66565b5b6000611e2f86828701611db3565b9350506020611e4086828701611db3565b9250506040611e5186828701611cfe565b9150509250925092565b600060208284031215611e7157611e70611b66565b5b6000611e7f84828501611db3565b91505092915050565b600081519050919050565b600082825260208201905092915050565b6000819050602082019050919050565b611ebd81611cdd565b82525050565b6000611ecf8383611eb4565b60208301905092915050565b6000602082019050919050565b6000611ef382611e88565b611efd8185611e93565b9350611f0883611ea4565b8060005b83811015611f39578151611f208882611ec3565b9750611f2b83611edb565b925050600181019050611f0c565b5085935050505092915050565b60006020820190508181036000830152611f608184611ee8565b905092915050565b600080fd5b600080fd5b7f4e487b7100000000000000000000000000000000000000000000000000000000600052604160045260246000fd5b611faa82611c71565b810181811067ffffffffffffffff82111715611fc957611fc8611f72565b5b80604052505050565b6000611fdc611b5c565b9050611fe88282611fa1565b919050565b600067ffffffffffffffff82111561200857612007611f72565b5b61201182611c71565b9050602081019050919050565b82818337600083830152505050565b600061204061203b84611fed565b611fd2565b90508281526020810184848401111561205c5761205b611f6d565b5b61206784828561201e565b509392505050565b600082601f83011261208457612083611f68565b5b813561209484826020860161202d565b91505092915050565b600080604083850312156120b4576120b3611b66565b5b60006120c285828601611db3565b925050602083013567ffffffffffffffff8111156120e3576120e2611b6b565b5b6120ef8582860161206f565b9150509250929050565b61210281611cdd565b82525050565b600060208201905061211d60008301846120f9565b92915050565b61212c81611bf5565b811461213757600080fd5b50565b60008135905061214981612123565b92915050565b6000806040838503121561216657612165611b66565b5b600061217485828601611db3565b92505060206121858582860161213a565b9150509250929050565b600067ffffffffffffffff8211156121aa576121a9611f72565b5b6121b382611c71565b9050602081019050919050565b60006121d36121ce8461218f565b611fd2565b9050828152602081018484840111156121ef576121ee611f6d565b5b6121fa84828561201e565b509392505050565b600082601f83011261221757612216611f68565b5b81356122278482602086016121c0565b91505092915050565b6000806000806080858703121561224a57612249611b66565b5b600061225887828801611db3565b945050602061226987828801611db3565b935050604061227a87828801611cfe565b925050606085013567ffffffffffffffff81111561229b5761229a611b6b565b5b6122a787828801612202565b91505092959194509250565b600080604083850312156122ca576122c9611b66565b5b60006122d885828601611db3565b92505060206122e985828601611db3565b9150509250929050565b7f4e487b7100000000000000000000000000000000000000000000000000000000600052602260045260246000fd5b6000600282049050600182168061233a57607f821691505b60208210810361234d5761234c6122f3565b5b50919050565b7f4552433732313a20617070726f76616c20746f2063757272656e74206f776e6560008201527f7200000000000000000000000000000000000000000000000000000000000000602082015250565b60006123af602183611c36565b91506123ba82612353565b604082019050919050565b600060208201905081810360008301526123de816123a2565b9050919050565b7f4552433732313a20617070726f76652063616c6c6572206973206e6f7420746f60008201527f6b656e206f776e6572206f7220617070726f76656420666f7220616c6c000000602082015250565b6000612441603d83611c36565b915061244c826123e5565b604082019050919050565b6000602082019050818103600083015261247081612434565b9050919050565b7f4552433732313a2063616c6c6572206973206e6f7420746f6b656e206f776e6560008201527f72206f7220617070726f76656400000000000000000000000000000000000000602082015250565b60006124d3602d83611c36565b91506124de82612477565b604082019050919050565b60006020820190508181036000830152612502816124c6565b9050919050565b7f4552433732313a20696e76616c696420746f6b656e2049440000000000000000600082015250565b600061253f601883611c36565b915061254a82612509565b602082019050919050565b6000602082019050818103600083015261256e81612532565b9050919050565b7f4552433732313a2061646472657373207a65726f206973206e6f74206120766160008201527f6c6964206f776e65720000000000000000000000000000000000000000000000602082015250565b60006125d1602983611c36565b91506125dc82612575565b604082019050919050565b60006020820190508181036000830152612600816125c4565b9050919050565b600081905092915050565b600061261d82611c2b565b6126278185612607565b9350612637818560208601611c47565b80840191505092915050565b600061264f8285612612565b915061265b8284612612565b91508190509392505050565b7f4552433732313a207472616e736665722066726f6d20696e636f72726563742060008201527f6f776e6572000000000000000000000000000000000000000000000000000000602082015250565b60006126c3602583611c36565b91506126ce82612667565b604082019050919050565b600060208201905081810360008301526126f2816126b6565b9050919050565b7f4552433732313a207472616e7366657220746f20746865207a65726f2061646460008201527f7265737300000000000000000000000000000000000000000000000000000000602082015250565b6000612755602483611c36565b9150612760826126f9565b604082019050919050565b6000602082019050818103600083015261278481612748565b9050919050565b7f4552433732313a206d696e7420746f20746865207a65726f2061646472657373600082015250565b60006127c1602083611c36565b91506127cc8261278b565b602082019050919050565b600060208201905081810360008301526127f0816127b4565b9050919050565b7f4552433732313a20746f6b656e20616c7265616479206d696e74656400000000600082015250565b600061282d601c83611c36565b9150612838826127f7565b602082019050919050565b6000602082019050818103600083015261285c81612820565b9050919050565b7f45524337323155524953746f726167653a2055524920736574206f66206e6f6e60008201527f6578697374656e7420746f6b656e000000000000000000000000000000000000602082015250565b60006128bf602e83611c36565b91506128ca82612863565b604082019050919050565b600060208201905081810360008301526128ee816128b2565b9050919050565b60008190508160005260206000209050919050565b60006020601f8301049050919050565b600082821b905092915050565b6000600883026129577fffffffffffffffffffffffffffffffffffffffffffffffffffffffffffffffff8261291a565b612961868361291a565b95508019841693508086168417925050509392505050565b6000819050919050565b600061299e61299961299484611cdd565b612979565b611cdd565b9050919050565b6000819050919050565b6129b883612983565b6129cc6129c4826129a5565b848454612927565b825550505050565b600090565b6129e16129d4565b6129ec8184846129af565b505050565b5b81811015612a1057612a056000826129d9565b6001810190506129f2565b5050565b601f821115612a5557612a26816128f5565b612a2f8461290a565b81016020851015612a3e578190505b612a52612a4a8561290a565b8301826129f1565b50505b505050565b600082821c905092915050565b6000612a7860001984600802612a5a565b1980831691505092915050565b6000612a918383612a67565b9150826002028217905092915050565b612aaa82611c2b565b67ffffffffffffffff811115612ac357612ac2611f72565b5b612acd8254612322565b612ad8828285612a14565b600060209050601f831160018114612b0b5760008415612af9578287015190505b612b038582612a85565b865550612b6b565b601f198416612b19866128f5565b60005b82811015612b4157848901518255600182019150602085019450602081019050612b1c565b86831015612b5e5784890151612b5a601f891682612a67565b8355505b6001600288020188555050505b505050505050565b7f4552433732313a20617070726f766520746f2063616c6c657200000000000000600082015250565b6000612ba9601983611c36565b9150612bb482612b73565b602082019050919050565b60006020820190508181036000830152612bd881612b9c565b9050919050565b7f4552433732313a207472616e7366657220746f206e6f6e20455243373231526560008201527f63656976657220696d706c656d656e7465720000000000000000000000000000602082015250565b6000612c3b603283611c36565b9150612c4682612bdf565b604082019050919050565b60006020820190508181036000830152612c6a81612c2e565b9050919050565b7f4e487b7100000000000000000000000000000000000000000000000000000000600052601160045260246000fd5b6000612cab82611cdd565b9150612cb683611cdd565b9250828203905081811115612cce57612ccd612c71565b5b92915050565b6000612cdf82611cdd565b9150612cea83611cdd565b9250828201905080821115612d0257612d01612c71565b5b92915050565b600081519050919050565b600082825260208201905092915050565b6000612d2f82612d08565b612d398185612d13565b9350612d49818560208601611c47565b612d5281611c71565b840191505092915050565b6000608082019050612d726000830187611d72565b612d7f6020830186611d72565b612d8c60408301856120f9565b8181036060830152612d9e8184612d24565b905095945050505050565b600081519050612db881611b9c565b92915050565b600060208284031215612dd457612dd3611b66565b5b6000612de284828501612da9565b91505092915050565b7f4e487b7100000000000000000000000000000000000000000000000000000000600052601260045260246000fdfea2646970667358221220a7fb1eddad86031040826531827e3079651bbb97e661b736881ad692f889a11f64736f6c63430008110033",
  "linkReferences": {},
  "deployedLinkReferences": {}
}